{
  "contractName": "DMODCrowdsale",
  "abi": [
    {
      "constant": true,
      "inputs": [],
      "name": "duration",
      "outputs": [
        {
          "name": "",
          "type": "uint256"
        }
      ],
      "payable": false,
      "stateMutability": "view",
      "type": "function"
    },
    {
      "constant": true,
      "inputs": [],
      "name": "rate",
      "outputs": [
        {
          "name": "",
          "type": "uint256"
        }
      ],
      "payable": false,
      "stateMutability": "view",
      "type": "function"
    },
    {
      "constant": false,
      "inputs": [],
      "name": "unpause",
      "outputs": [],
      "payable": false,
      "stateMutability": "nonpayable",
      "type": "function"
    },
    {
      "constant": true,
      "inputs": [],
      "name": "weiRaised",
      "outputs": [
        {
          "name": "",
          "type": "uint256"
        }
      ],
      "payable": false,
      "stateMutability": "view",
      "type": "function"
    },
    {
      "constant": true,
      "inputs": [
        {
          "name": "account",
          "type": "address"
        }
      ],
      "name": "isPauser",
      "outputs": [
        {
          "name": "",
          "type": "bool"
        }
      ],
      "payable": false,
      "stateMutability": "view",
      "type": "function"
    },
    {
      "constant": true,
      "inputs": [],
      "name": "wallet",
      "outputs": [
        {
          "name": "",
          "type": "address"
        }
      ],
      "payable": false,
      "stateMutability": "view",
      "type": "function"
    },
    {
      "constant": true,
      "inputs": [],
      "name": "paused",
      "outputs": [
        {
          "name": "",
          "type": "bool"
        }
      ],
      "payable": false,
      "stateMutability": "view",
      "type": "function"
    },
    {
      "constant": false,
      "inputs": [],
      "name": "renouncePauser",
      "outputs": [],
      "payable": false,
      "stateMutability": "nonpayable",
      "type": "function"
    },
    {
      "constant": false,
      "inputs": [],
      "name": "renounceOwnership",
      "outputs": [],
      "payable": false,
      "stateMutability": "nonpayable",
      "type": "function"
    },
    {
      "constant": true,
      "inputs": [],
      "name": "priceFeed",
      "outputs": [
        {
          "name": "",
          "type": "address"
        }
      ],
      "payable": false,
      "stateMutability": "view",
      "type": "function"
    },
    {
      "constant": true,
      "inputs": [],
      "name": "dmodCost",
      "outputs": [
        {
          "name": "",
          "type": "uint256"
        }
      ],
      "payable": false,
      "stateMutability": "view",
      "type": "function"
    },
    {
      "constant": false,
      "inputs": [
        {
          "name": "account",
          "type": "address"
        }
      ],
      "name": "addPauser",
      "outputs": [],
      "payable": false,
      "stateMutability": "nonpayable",
      "type": "function"
    },
    {
      "constant": false,
      "inputs": [],
      "name": "pause",
      "outputs": [],
      "payable": false,
      "stateMutability": "nonpayable",
      "type": "function"
    },
    {
      "constant": true,
      "inputs": [],
      "name": "owner",
      "outputs": [
        {
          "name": "",
          "type": "address"
        }
      ],
      "payable": false,
      "stateMutability": "view",
      "type": "function"
    },
    {
      "constant": true,
      "inputs": [],
      "name": "isOwner",
      "outputs": [
        {
          "name": "",
          "type": "bool"
        }
      ],
      "payable": false,
      "stateMutability": "view",
      "type": "function"
    },
    {
      "constant": true,
      "inputs": [],
      "name": "dmodToken",
      "outputs": [
        {
          "name": "",
          "type": "address"
        }
      ],
      "payable": false,
      "stateMutability": "view",
      "type": "function"
    },
    {
      "constant": true,
      "inputs": [],
      "name": "start",
      "outputs": [
        {
          "name": "",
          "type": "uint256"
        }
      ],
      "payable": false,
      "stateMutability": "view",
      "type": "function"
    },
    {
      "constant": true,
      "inputs": [],
      "name": "cliffDuration",
      "outputs": [
        {
          "name": "",
          "type": "uint256"
        }
      ],
      "payable": false,
      "stateMutability": "view",
      "type": "function"
    },
    {
      "constant": false,
      "inputs": [
        {
          "name": "beneficiary",
          "type": "address"
        }
      ],
      "name": "buyTokens",
      "outputs": [],
      "payable": true,
      "stateMutability": "payable",
      "type": "function"
    },
    {
      "constant": false,
      "inputs": [
        {
          "name": "newOwner",
          "type": "address"
        }
      ],
      "name": "transferOwnership",
      "outputs": [],
      "payable": false,
      "stateMutability": "nonpayable",
      "type": "function"
    },
    {
      "constant": true,
      "inputs": [],
      "name": "token",
      "outputs": [
        {
          "name": "",
          "type": "address"
        }
      ],
      "payable": false,
      "stateMutability": "view",
      "type": "function"
    },
    {
      "inputs": [
        {
          "name": "rate",
          "type": "uint256"
        },
        {
          "name": "wallet",
          "type": "address"
        },
        {
          "name": "token",
          "type": "address"
        },
        {
          "name": "_dmodCost",
          "type": "uint256"
        },
        {
          "name": "ethpriceFeed",
          "type": "address"
        },
        {
          "name": "_start",
          "type": "uint256"
        },
        {
          "name": "_cliffDuration",
          "type": "uint256"
        },
        {
          "name": "_duration",
          "type": "uint256"
        }
      ],
      "payable": false,
      "stateMutability": "nonpayable",
      "type": "constructor"
    },
    {
      "payable": true,
      "stateMutability": "payable",
      "type": "fallback"
    },
    {
      "anonymous": false,
      "inputs": [
        {
          "indexed": false,
          "name": "beneficiary",
          "type": "address"
        },
        {
          "indexed": false,
          "name": "vestingContract",
          "type": "address"
        }
      ],
      "name": "VestingCreated",
      "type": "event"
    },
    {
      "anonymous": false,
      "inputs": [
        {
          "indexed": false,
          "name": "account",
          "type": "address"
        }
      ],
      "name": "Paused",
      "type": "event"
    },
    {
      "anonymous": false,
      "inputs": [
        {
          "indexed": false,
          "name": "account",
          "type": "address"
        }
      ],
      "name": "Unpaused",
      "type": "event"
    },
    {
      "anonymous": false,
      "inputs": [
        {
          "indexed": true,
          "name": "account",
          "type": "address"
        }
      ],
      "name": "PauserAdded",
      "type": "event"
    },
    {
      "anonymous": false,
      "inputs": [
        {
          "indexed": true,
          "name": "account",
          "type": "address"
        }
      ],
      "name": "PauserRemoved",
      "type": "event"
    },
    {
      "anonymous": false,
      "inputs": [
        {
          "indexed": true,
          "name": "purchaser",
          "type": "address"
        },
        {
          "indexed": true,
          "name": "beneficiary",
          "type": "address"
        },
        {
          "indexed": false,
          "name": "value",
          "type": "uint256"
        },
        {
          "indexed": false,
          "name": "amount",
          "type": "uint256"
        }
      ],
      "name": "TokensPurchased",
      "type": "event"
    },
    {
      "anonymous": false,
      "inputs": [
        {
          "indexed": true,
          "name": "previousOwner",
          "type": "address"
        },
        {
          "indexed": true,
          "name": "newOwner",
          "type": "address"
        }
      ],
      "name": "OwnershipTransferred",
      "type": "event"
    },
    {
      "constant": false,
      "inputs": [],
      "name": "withdrawRemainingTokens",
      "outputs": [],
      "payable": false,
      "stateMutability": "nonpayable",
      "type": "function"
    }
  ],
  "bytecode": "0x60806040523480156200001157600080fd5b50604051610100806200417683398101806040526101008110156200003557600080fd5b8101908080519060200190929190805190602001909291908051906020019092919080519060200190929190805190602001909291908051906020019092919080519060200190929190805190602001909291905050508787876000620000a16200045a60201b60201c565b9050806000806101000a81548173ffffffffffffffffffffffffffffffffffffffff021916908373ffffffffffffffffffffffffffffffffffffffff1602179055508073ffffffffffffffffffffffffffffffffffffffff16600073ffffffffffffffffffffffffffffffffffffffff167f8be0079c531659141344cd1fd0a4f28419497f9722a3daafe3b4186f6b6457e060405160405180910390a3506001600060146101000a81548160ff021916908315150217905550600083111515620001d3576040517f08c379a00000000000000000000000000000000000000000000000000000000081526004018080602001828103825260148152602001807f43726f776473616c653a2072617465206973203000000000000000000000000081525060200191505060405180910390fd5b600073ffffffffffffffffffffffffffffffffffffffff168273ffffffffffffffffffffffffffffffffffffffff16141515156200025d576040517f08c379a0000000000000000000000000000000000000000000000000000000008152600401808060200182810382526025815260200180620041516025913960400191505060405180910390fd5b600073ffffffffffffffffffffffffffffffffffffffff168173ffffffffffffffffffffffffffffffffffffffff1614151515620002e7576040517f08c379a00000000000000000000000000000000000000000000000000000000081526004018080602001828103825260248152602001806200410b6024913960400191505060405180910390fd5b8260038190555081600260006101000a81548173ffffffffffffffffffffffffffffffffffffffff021916908373ffffffffffffffffffffffffffffffffffffffff16021790555080600160006101000a81548173ffffffffffffffffffffffffffffffffffffffff021916908373ffffffffffffffffffffffffffffffffffffffff16021790555050505062000393620003876200045a60201b60201c565b6200046260201b60201c565b6000600660006101000a81548160ff02191690831515021790555085600660016101000a81548173ffffffffffffffffffffffffffffffffffffffff021916908373ffffffffffffffffffffffffffffffffffffffff1602179055508460078190555083600b60006101000a81548173ffffffffffffffffffffffffffffffffffffffff021916908373ffffffffffffffffffffffffffffffffffffffff160217905550826008819055508160098190555080600a8190555050505050505050506200068b565b600033905090565b6200047d816005620004c360201b62001bc61790919060201c565b8073ffffffffffffffffffffffffffffffffffffffff167f6719d08c1888103bea251a4ed56406bd0c3e69723c8a1686e017e7bbe159b6f860405160405180910390a250565b620004d58282620005a960201b60201c565b1515156200054b576040517f08c379a000000000000000000000000000000000000000000000000000000000815260040180806020018281038252601f8152602001807f526f6c65733a206163636f756e7420616c72656164792068617320726f6c650081525060200191505060405180910390fd5b60018260000160008373ffffffffffffffffffffffffffffffffffffffff1673ffffffffffffffffffffffffffffffffffffffff16815260200190815260200160002060006101000a81548160ff0219169083151502179055505050565b60008073ffffffffffffffffffffffffffffffffffffffff168273ffffffffffffffffffffffffffffffffffffffff161415151562000634576040517f08c379a00000000000000000000000000000000000000000000000000000000081526004018080602001828103825260228152602001806200412f6022913960400191505060405180910390fd5b8260000160008373ffffffffffffffffffffffffffffffffffffffff1673ffffffffffffffffffffffffffffffffffffffff16815260200190815260200160002060009054906101000a900460ff16905092915050565b613a70806200069b6000396000f3fe608060405260043610620001525760003560e01c806382dc1ec411620000bb578063a39f57601162000079578063a39f576014620004d6578063be9a65551462000530578063d85349f7146200055e578063ec8ac4d8146200058c578063f2fde38b14620005d3578063fc0c546a14620006285762000152565b806382dc1ec414620003c15780638456cb5914620004165780638afbf66914620004305780638da5cb5b146200044a5780638f32d59b14620004a45762000152565b8063521eb2731162000115578063521eb27314620002795780635c975abb14620002d35780636ef8d66d1462000305578063715018a6146200031f578063741bef1a14620003395780637f9d2b4e14620003935762000152565b80630fb5a6b414620001685780632c4e722e14620001965780633f4ba83a14620001c45780634042b66f14620001de57806346fbf68e146200020c575b620001666200016062000682565b6200068a565b005b3480156200017557600080fd5b50620001806200082a565b6040518082815260200191505060405180910390f35b348015620001a357600080fd5b50620001ae62000830565b6040518082815260200191505060405180910390f35b348015620001d157600080fd5b50620001dc6200083a565b005b348015620001eb57600080fd5b50620001f6620009b5565b6040518082815260200191505060405180910390f35b3480156200021957600080fd5b506200025f600480360360208110156200023257600080fd5b81019080803573ffffffffffffffffffffffffffffffffffffffff169060200190929190505050620009bf565b604051808215151515815260200191505060405180910390f35b3480156200028657600080fd5b5062000291620009de565b604051808273ffffffffffffffffffffffffffffffffffffffff1673ffffffffffffffffffffffffffffffffffffffff16815260200191505060405180910390f35b348015620002e057600080fd5b50620002eb62000a08565b604051808215151515815260200191505060405180910390f35b3480156200031257600080fd5b506200031d62000a1f565b005b3480156200032c57600080fd5b506200033762000a35565b005b3480156200034657600080fd5b506200035162000b73565b604051808273ffffffffffffffffffffffffffffffffffffffff1673ffffffffffffffffffffffffffffffffffffffff16815260200191505060405180910390f35b348015620003a057600080fd5b50620003ab62000b99565b6040518082815260200191505060405180910390f35b348015620003ce57600080fd5b506200041460048036036020811015620003e757600080fd5b81019080803573ffffffffffffffffffffffffffffffffffffffff16906020019092919050505062000b9f565b005b3480156200042357600080fd5b506200042e62000c1a565b005b3480156200043d57600080fd5b506200044862000d96565b005b3480156200045757600080fd5b506200046262000fce565b604051808273ffffffffffffffffffffffffffffffffffffffff1673ffffffffffffffffffffffffffffffffffffffff16815260200191505060405180910390f35b348015620004b157600080fd5b50620004bc62000ff7565b604051808215151515815260200191505060405180910390f35b348015620004e357600080fd5b50620004ee62001057565b604051808273ffffffffffffffffffffffffffffffffffffffff1673ffffffffffffffffffffffffffffffffffffffff16815260200191505060405180910390f35b3480156200053d57600080fd5b50620005486200107d565b6040518082815260200191505060405180910390f35b3480156200056b57600080fd5b506200057662001083565b6040518082815260200191505060405180910390f35b620005d160048036036020811015620005a457600080fd5b81019080803573ffffffffffffffffffffffffffffffffffffffff1690602001909291905050506200068a565b005b348015620005e057600080fd5b506200062660048036036020811015620005f957600080fd5b81019080803573ffffffffffffffffffffffffffffffffffffffff16906020019092919050505062001089565b005b3480156200063557600080fd5b506200064062001116565b604051808273ffffffffffffffffffffffffffffffffffffffff1673ffffffffffffffffffffffffffffffffffffffff16815260200191505060405180910390f35b600033905090565b600060149054906101000a900460ff1615156200070f576040517f08c379a000000000000000000000000000000000000000000000000000000000815260040180806020018281038252601f8152602001807f5265656e7472616e637947756172643a207265656e7472616e742063616c6c0081525060200191505060405180910390fd5b60008060146101000a81548160ff02191690831515021790555060003490506200073a828262001140565b60006200074782620011d6565b905062000760826004546200131390919063ffffffff16565b6004819055506200077283826200139e565b8273ffffffffffffffffffffffffffffffffffffffff166200079362000682565b73ffffffffffffffffffffffffffffffffffffffff167f6faf93231a456e552dbc9961f58d9713ee4f2e69d15f1975b050ef0911053a7b8484604051808381526020018281526020019250505060405180910390a3620007f48383620013ae565b620007fe620013b2565b6200080a83836200141e565b50506001600060146101000a81548160ff02191690831515021790555050565b600a5481565b6000600354905090565b6200084e6200084862000682565b620009bf565b1515620008a7576040517f08c379a0000000000000000000000000000000000000000000000000000000008152600401808060200182810382526030815260200180620039616030913960400191505060405180910390fd5b600660009054906101000a900460ff1615156200092c576040517f08c379a00000000000000000000000000000000000000000000000000000000081526004018080602001828103825260148152602001807f5061757361626c653a206e6f742070617573656400000000000000000000000081525060200191505060405180910390fd5b6000600660006101000a81548160ff0219169083151502179055507f5db9ee0a495bf2e6ff9c91a7834c1ba4fdd244a5e8aa4e537bd38aeae4b073aa6200097262000682565b604051808273ffffffffffffffffffffffffffffffffffffffff1673ffffffffffffffffffffffffffffffffffffffff16815260200191505060405180910390a1565b6000600454905090565b6000620009d78260056200142290919063ffffffff16565b9050919050565b6000600260009054906101000a900473ffffffffffffffffffffffffffffffffffffffff16905090565b6000600660009054906101000a900460ff16905090565b62000a3362000a2d62000682565b62001504565b565b62000a3f62000ff7565b151562000ab4576040517f08c379a00000000000000000000000000000000000000000000000000000000081526004018080602001828103825260208152602001807f4f776e61626c653a2063616c6c6572206973206e6f7420746865206f776e657281525060200191505060405180910390fd5b600073ffffffffffffffffffffffffffffffffffffffff166000809054906101000a900473ffffffffffffffffffffffffffffffffffffffff1673ffffffffffffffffffffffffffffffffffffffff167f8be0079c531659141344cd1fd0a4f28419497f9722a3daafe3b4186f6b6457e060405160405180910390a360008060006101000a81548173ffffffffffffffffffffffffffffffffffffffff021916908373ffffffffffffffffffffffffffffffffffffffff160217905550565b600b60009054906101000a900473ffffffffffffffffffffffffffffffffffffffff1681565b60075481565b62000bb362000bad62000682565b620009bf565b151562000c0c576040517f08c379a0000000000000000000000000000000000000000000000000000000008152600401808060200182810382526030815260200180620039616030913960400191505060405180910390fd5b62000c178162001560565b50565b62000c2e62000c2862000682565b620009bf565b151562000c87576040517f08c379a0000000000000000000000000000000000000000000000000000000008152600401808060200182810382526030815260200180620039616030913960400191505060405180910390fd5b600660009054906101000a900460ff1615151562000d0d576040517f08c379a00000000000000000000000000000000000000000000000000000000081526004018080602001828103825260108152602001807f5061757361626c653a207061757365640000000000000000000000000000000081525060200191505060405180910390fd5b6001600660006101000a81548160ff0219169083151502179055507f62e78cea01bee320cd4e420270b5ea74000d11b0c9f74754ebdbfc544b05a25862000d5362000682565b604051808273ffffffffffffffffffffffffffffffffffffffff1673ffffffffffffffffffffffffffffffffffffffff16815260200191505060405180910390a1565b62000da062000ff7565b151562000e15576040517f08c379a00000000000000000000000000000000000000000000000000000000081526004018080602001828103825260208152602001807f4f776e61626c653a2063616c6c6572206973206e6f7420746865206f776e657281525060200191505060405180910390fd5b6000600660019054906101000a900473ffffffffffffffffffffffffffffffffffffffff16905060008173ffffffffffffffffffffffffffffffffffffffff166370a08231306040518263ffffffff1660e01b8152600401808273ffffffffffffffffffffffffffffffffffffffff1673ffffffffffffffffffffffffffffffffffffffff16815260200191505060206040518083038186803b15801562000ebc57600080fd5b505afa15801562000ed1573d6000803e3d6000fd5b505050506040513d602081101562000ee857600080fd5b810190808051906020019092919050505090508173ffffffffffffffffffffffffffffffffffffffff1663a9059cbb62000f2162000fce565b836040518363ffffffff1660e01b8152600401808373ffffffffffffffffffffffffffffffffffffffff1673ffffffffffffffffffffffffffffffffffffffff16815260200182815260200192505050602060405180830381600087803b15801562000f8c57600080fd5b505af115801562000fa1573d6000803e3d6000fd5b505050506040513d602081101562000fb857600080fd5b8101908080519060200190929190505050505050565b60008060009054906101000a900473ffffffffffffffffffffffffffffffffffffffff16905090565b60008060009054906101000a900473ffffffffffffffffffffffffffffffffffffffff1673ffffffffffffffffffffffffffffffffffffffff166200103b62000682565b73ffffffffffffffffffffffffffffffffffffffff1614905090565b600660019054906101000a900473ffffffffffffffffffffffffffffffffffffffff1681565b60085481565b60095481565b6200109362000ff7565b151562001108576040517f08c379a00000000000000000000000000000000000000000000000000000000081526004018080602001828103825260208152602001807f4f776e61626c653a2063616c6c6572206973206e6f7420746865206f776e657281525060200191505060405180910390fd5b6200111381620015bc565b50565b6000600160009054906101000a900473ffffffffffffffffffffffffffffffffffffffff16905090565b600660009054906101000a900460ff16151515620011c6576040517f08c379a00000000000000000000000000000000000000000000000000000000081526004018080602001828103825260108152602001807f5061757361626c653a207061757365640000000000000000000000000000000081525060200191505060405180910390fd5b620011d2828262001704565b5050565b600080600080600080600b60009054906101000a900473ffffffffffffffffffffffffffffffffffffffff1673ffffffffffffffffffffffffffffffffffffffff1663feaf968c6040518163ffffffff1660e01b815260040160a06040518083038186803b1580156200124857600080fd5b505afa1580156200125d573d6000803e3d6000fd5b505050506040513d60a08110156200127457600080fd5b810190808051906020019092919080519060200190929190805190602001909291908051906020019092919080519060200190929190505050945094509450945094506000620012d36402540be400866200180c90919063ffffffff16565b90506000620012ec89836200180c90919063ffffffff16565b905062001305600754826200189b90919063ffffffff16565b975050505050505050919050565b600080828401905083811015151562001394576040517f08c379a000000000000000000000000000000000000000000000000000000000815260040180806020018281038252601b8152602001807f536166654d6174683a206164646974696f6e206f766572666c6f77000000000081525060200191505060405180910390fd5b8091505092915050565b620013aa8282620018e7565b5050565b5050565b600260009054906101000a900473ffffffffffffffffffffffffffffffffffffffff1673ffffffffffffffffffffffffffffffffffffffff166108fc349081150290604051600060405180830381858888f193505050501580156200141b573d6000803e3d6000fd5b50565b5050565b60008073ffffffffffffffffffffffffffffffffffffffff168273ffffffffffffffffffffffffffffffffffffffff1614151515620014ad576040517f08c379a0000000000000000000000000000000000000000000000000000000008152600401808060200182810382526022815260200180620039f96022913960400191505060405180910390fd5b8260000160008373ffffffffffffffffffffffffffffffffffffffff1673ffffffffffffffffffffffffffffffffffffffff16815260200190815260200160002060009054906101000a900460ff16905092915050565b6200151a81600562001b0390919063ffffffff16565b8073ffffffffffffffffffffffffffffffffffffffff167fcd265ebaf09df2871cc7bd4133404a235ba12eff2041bb89d9c714a2621c7c7e60405160405180910390a250565b6200157681600562001bc690919063ffffffff16565b8073ffffffffffffffffffffffffffffffffffffffff167f6719d08c1888103bea251a4ed56406bd0c3e69723c8a1686e017e7bbe159b6f860405160405180910390a250565b600073ffffffffffffffffffffffffffffffffffffffff168173ffffffffffffffffffffffffffffffffffffffff161415151562001646576040517f08c379a0000000000000000000000000000000000000000000000000000000008152600401808060200182810382526026815260200180620039916026913960400191505060405180910390fd5b8073ffffffffffffffffffffffffffffffffffffffff166000809054906101000a900473ffffffffffffffffffffffffffffffffffffffff1673ffffffffffffffffffffffffffffffffffffffff167f8be0079c531659141344cd1fd0a4f28419497f9722a3daafe3b4186f6b6457e060405160405180910390a3806000806101000a81548173ffffffffffffffffffffffffffffffffffffffff021916908373ffffffffffffffffffffffffffffffffffffffff16021790555050565b600073ffffffffffffffffffffffffffffffffffffffff168273ffffffffffffffffffffffffffffffffffffffff16141515156200178e576040517f08c379a000000000000000000000000000000000000000000000000000000000815260040180806020018281038252602a81526020018062003a1b602a913960400191505060405180910390fd5b6000811415151562001808576040517f08c379a00000000000000000000000000000000000000000000000000000000081526004018080602001828103825260198152602001807f43726f776473616c653a20776569416d6f756e7420697320300000000000000081525060200191505060405180910390fd5b5050565b60008083141562001821576000905062001895565b600082840290508284828115156200183557fe5b0414151562001890576040517f08c379a0000000000000000000000000000000000000000000000000000000008152600401808060200182810382526021815260200180620039d86021913960400191505060405180910390fd5b809150505b92915050565b6000620018df83836040518060400160405280601a81526020017f536166654d6174683a206469766973696f6e206279207a65726f00000000000081525062001ca6565b905092915050565b6000600660019054906101000a900473ffffffffffffffffffffffffffffffffffffffff169050600083600854600954600a5460006040516200192a9062001d75565b808673ffffffffffffffffffffffffffffffffffffffff1673ffffffffffffffffffffffffffffffffffffffff1681526020018581526020018481526020018381526020018215151515815260200195505050505050604051809103906000f0801580156200199d573d6000803e3d6000fd5b5090507f2ee44d821b06c9aa990927d787f4adf9d8d3eb9bf798ef5c80415cd7a39656028482604051808373ffffffffffffffffffffffffffffffffffffffff1673ffffffffffffffffffffffffffffffffffffffff1681526020018273ffffffffffffffffffffffffffffffffffffffff1673ffffffffffffffffffffffffffffffffffffffff1681526020019250505060405180910390a18173ffffffffffffffffffffffffffffffffffffffff1663a9059cbb82856040518363ffffffff1660e01b8152600401808373ffffffffffffffffffffffffffffffffffffffff1673ffffffffffffffffffffffffffffffffffffffff16815260200182815260200192505050602060405180830381600087803b15801562001abf57600080fd5b505af115801562001ad4573d6000803e3d6000fd5b505050506040513d602081101562001aeb57600080fd5b81019080805190602001909291905050505050505050565b62001b0f828262001422565b151562001b68576040517f08c379a0000000000000000000000000000000000000000000000000000000008152600401808060200182810382526021815260200180620039b76021913960400191505060405180910390fd5b60008260000160008373ffffffffffffffffffffffffffffffffffffffff1673ffffffffffffffffffffffffffffffffffffffff16815260200190815260200160002060006101000a81548160ff0219169083151502179055505050565b62001bd2828262001422565b15151562001c48576040517f08c379a000000000000000000000000000000000000000000000000000000000815260040180806020018281038252601f8152602001807f526f6c65733a206163636f756e7420616c72656164792068617320726f6c650081525060200191505060405180910390fd5b60018260000160008373ffffffffffffffffffffffffffffffffffffffff1673ffffffffffffffffffffffffffffffffffffffff16815260200190815260200160002060006101000a81548160ff0219169083151502179055505050565b60008083118290151562001d58576040517f08c379a00000000000000000000000000000000000000000000000000000000081526004018080602001828103825283818151815260200191508051906020019080838360005b8381101562001d1c57808201518184015260208101905062001cff565b50505050905090810190601f16801562001d4a5780820380516001836020036101000a031916815260200191505b509250505060405180910390fd5b506000838581151562001d6757fe5b049050809150509392505050565b611bdd8062001d848339019056fe60806040523480156200001157600080fd5b5060405160a08062001bdd833981018060405260a08110156200003357600080fd5b81019080805190602001909291908051906020019092919080519060200190929190805190602001909291908051906020019092919050505084848484846000620000836200038f60201b60201c565b9050806000806101000a81548173ffffffffffffffffffffffffffffffffffffffff021916908373ffffffffffffffffffffffffffffffffffffffff1602179055508073ffffffffffffffffffffffffffffffffffffffff16600073ffffffffffffffffffffffffffffffffffffffff167f8be0079c531659141344cd1fd0a4f28419497f9722a3daafe3b4186f6b6457e060405160405180910390a350600073ffffffffffffffffffffffffffffffffffffffff168573ffffffffffffffffffffffffffffffffffffffff1614151515620001ab576040517f08c379a000000000000000000000000000000000000000000000000000000000815260040180806020018281038252602d81526020018062001b85602d913960400191505060405180910390fd5b81831115151562000208576040517f08c379a000000000000000000000000000000000000000000000000000000000815260040180806020018281038252602b81526020018062001bb2602b913960400191505060405180910390fd5b60008211151562000281576040517f08c379a000000000000000000000000000000000000000000000000000000000815260040180806020018281038252601b8152602001807f546f6b656e56657374696e673a206475726174696f6e2069732030000000000081525060200191505060405180910390fd5b426200029c83866200039760201b62000c891790919060201c565b111515620002f6576040517f08c379a000000000000000000000000000000000000000000000000000000000815260040180806020018281038252602f81526020018062001b56602f913960400191505060405180910390fd5b84600160006101000a81548173ffffffffffffffffffffffffffffffffffffffff021916908373ffffffffffffffffffffffffffffffffffffffff16021790555080600560006101000a81548160ff021916908315150217905550816004819055506200037283856200039760201b62000c891790919060201c565b600281905550836003819055505050505050505050505062000422565b600033905090565b600080828401905083811015151562000418576040517f08c379a000000000000000000000000000000000000000000000000000000000815260040180806020018281038252601b8152602001807f536166654d6174683a206164646974696f6e206f766572666c6f77000000000081525060200191505060405180910390fd5b8091505092915050565b61172480620004326000396000f3fe608060405234801561001057600080fd5b50600436106100cf5760003560e01c8063872a78101161008c5780639852595c116100665780639852595c1461027a578063be9a6555146102d2578063f2fde38b146102f0578063fa01dc0614610334576100cf565b8063872a7810146101ec5780638da5cb5b1461020e5780638f32d59b14610258576100cf565b80630fb5a6b4146100d457806313d033c0146100f2578063191655871461011057806338af3eed14610154578063715018a61461019e57806374a8f103146101a8575b600080fd5b6100dc610390565b6040518082815260200191505060405180910390f35b6100fa61039a565b6040518082815260200191505060405180910390f35b6101526004803603602081101561012657600080fd5b81019080803573ffffffffffffffffffffffffffffffffffffffff1690602001909291905050506103a4565b005b61015c61057a565b604051808273ffffffffffffffffffffffffffffffffffffffff1673ffffffffffffffffffffffffffffffffffffffff16815260200191505060405180910390f35b6101a66105a4565b005b6101ea600480360360208110156101be57600080fd5b81019080803573ffffffffffffffffffffffffffffffffffffffff1690602001909291905050506106df565b005b6101f4610a57565b604051808215151515815260200191505060405180910390f35b610216610a6e565b604051808273ffffffffffffffffffffffffffffffffffffffff1673ffffffffffffffffffffffffffffffffffffffff16815260200191505060405180910390f35b610260610a97565b604051808215151515815260200191505060405180910390f35b6102bc6004803603602081101561029057600080fd5b81019080803573ffffffffffffffffffffffffffffffffffffffff169060200190929190505050610af5565b6040518082815260200191505060405180910390f35b6102da610b3e565b6040518082815260200191505060405180910390f35b6103326004803603602081101561030657600080fd5b81019080803573ffffffffffffffffffffffffffffffffffffffff169060200190929190505050610b48565b005b6103766004803603602081101561034a57600080fd5b81019080803573ffffffffffffffffffffffffffffffffffffffff169060200190929190505050610bd0565b604051808215151515815260200191505060405180910390f35b6000600454905090565b6000600254905090565b60006103af82610c26565b9050600081111515610429576040517f08c379a000000000000000000000000000000000000000000000000000000000815260040180806020018281038252601f8152602001807f546f6b656e56657374696e673a206e6f20746f6b656e7320617265206475650081525060200191505060405180910390fd5b61047b81600660008573ffffffffffffffffffffffffffffffffffffffff1673ffffffffffffffffffffffffffffffffffffffff16815260200190815260200160002054610c8990919063ffffffff16565b600660008473ffffffffffffffffffffffffffffffffffffffff1673ffffffffffffffffffffffffffffffffffffffff1681526020019081526020016000208190555061050b600160009054906101000a900473ffffffffffffffffffffffffffffffffffffffff16828473ffffffffffffffffffffffffffffffffffffffff16610d139092919063ffffffff16565b7fc7798891864187665ac6dd119286e44ec13f014527aeeb2b8eb3fd413df931798282604051808373ffffffffffffffffffffffffffffffffffffffff1673ffffffffffffffffffffffffffffffffffffffff1681526020018281526020019250505060405180910390a15050565b6000600160009054906101000a900473ffffffffffffffffffffffffffffffffffffffff16905090565b6105ac610a97565b1515610620576040517f08c379a00000000000000000000000000000000000000000000000000000000081526004018080602001828103825260208152602001807f4f776e61626c653a2063616c6c6572206973206e6f7420746865206f776e657281525060200191505060405180910390fd5b600073ffffffffffffffffffffffffffffffffffffffff166000809054906101000a900473ffffffffffffffffffffffffffffffffffffffff1673ffffffffffffffffffffffffffffffffffffffff167f8be0079c531659141344cd1fd0a4f28419497f9722a3daafe3b4186f6b6457e060405160405180910390a360008060006101000a81548173ffffffffffffffffffffffffffffffffffffffff021916908373ffffffffffffffffffffffffffffffffffffffff160217905550565b6106e7610a97565b151561075b576040517f08c379a00000000000000000000000000000000000000000000000000000000081526004018080602001828103825260208152602001807f4f776e61626c653a2063616c6c6572206973206e6f7420746865206f776e657281525060200191505060405180910390fd5b600560009054906101000a900460ff1615156107df576040517f08c379a000000000000000000000000000000000000000000000000000000000815260040180806020018281038252601b8152602001807f546f6b656e56657374696e673a2063616e6e6f74207265766f6b65000000000081525060200191505060405180910390fd5b600760008273ffffffffffffffffffffffffffffffffffffffff1673ffffffffffffffffffffffffffffffffffffffff16815260200190815260200160002060009054906101000a900460ff16151515610884576040517f08c379a00000000000000000000000000000000000000000000000000000000081526004018080602001828103825260238152602001806116d66023913960400191505060405180910390fd5b60008173ffffffffffffffffffffffffffffffffffffffff166370a08231306040518263ffffffff1660e01b8152600401808273ffffffffffffffffffffffffffffffffffffffff1673ffffffffffffffffffffffffffffffffffffffff16815260200191505060206040518083038186803b15801561090357600080fd5b505afa158015610917573d6000803e3d6000fd5b505050506040513d602081101561092d57600080fd5b81019080805190602001909291905050509050600061094b83610c26565b905060006109628284610de490919063ffffffff16565b90506001600760008673ffffffffffffffffffffffffffffffffffffffff1673ffffffffffffffffffffffffffffffffffffffff16815260200190815260200160002060006101000a81548160ff0219169083151502179055506109ee6109c7610a6e565b828673ffffffffffffffffffffffffffffffffffffffff16610d139092919063ffffffff16565b7f39983c6d4d174a7aee564f449d4a5c3c7ac9649d72b7793c56901183996f8af684604051808273ffffffffffffffffffffffffffffffffffffffff1673ffffffffffffffffffffffffffffffffffffffff16815260200191505060405180910390a150505050565b6000600560009054906101000a900460ff16905090565b60008060009054906101000a900473ffffffffffffffffffffffffffffffffffffffff16905090565b60008060009054906101000a900473ffffffffffffffffffffffffffffffffffffffff1673ffffffffffffffffffffffffffffffffffffffff16610ad9610e2e565b73ffffffffffffffffffffffffffffffffffffffff1614905090565b6000600660008373ffffffffffffffffffffffffffffffffffffffff1673ffffffffffffffffffffffffffffffffffffffff168152602001908152602001600020549050919050565b6000600354905090565b610b50610a97565b1515610bc4576040517f08c379a00000000000000000000000000000000000000000000000000000000081526004018080602001828103825260208152602001807f4f776e61626c653a2063616c6c6572206973206e6f7420746865206f776e657281525060200191505060405180910390fd5b610bcd81610e36565b50565b6000600760008373ffffffffffffffffffffffffffffffffffffffff1673ffffffffffffffffffffffffffffffffffffffff16815260200190815260200160002060009054906101000a900460ff169050919050565b6000610c82600660008473ffffffffffffffffffffffffffffffffffffffff1673ffffffffffffffffffffffffffffffffffffffff16815260200190815260200160002054610c7484610f7c565b610de490919063ffffffff16565b9050919050565b6000808284019050838110151515610d09576040517f08c379a000000000000000000000000000000000000000000000000000000000815260040180806020018281038252601b8152602001807f536166654d6174683a206164646974696f6e206f766572666c6f77000000000081525060200191505060405180910390fd5b8091505092915050565b610ddf838473ffffffffffffffffffffffffffffffffffffffff1663a9059cbb905060e01b8484604051602401808373ffffffffffffffffffffffffffffffffffffffff1673ffffffffffffffffffffffffffffffffffffffff16815260200182815260200192505050604051602081830303815290604052907bffffffffffffffffffffffffffffffffffffffffffffffffffffffff19166020820180517bffffffffffffffffffffffffffffffffffffffffffffffffffffffff8381831617835250505050611166565b505050565b6000610e2683836040518060400160405280601e81526020017f536166654d6174683a207375627472616374696f6e206f766572666c6f7700008152506113b9565b905092915050565b600033905090565b600073ffffffffffffffffffffffffffffffffffffffff168173ffffffffffffffffffffffffffffffffffffffff1614151515610ebe576040517f08c379a00000000000000000000000000000000000000000000000000000000081526004018080602001828103825260268152602001806116656026913960400191505060405180910390fd5b8073ffffffffffffffffffffffffffffffffffffffff166000809054906101000a900473ffffffffffffffffffffffffffffffffffffffff1673ffffffffffffffffffffffffffffffffffffffff167f8be0079c531659141344cd1fd0a4f28419497f9722a3daafe3b4186f6b6457e060405160405180910390a3806000806101000a81548173ffffffffffffffffffffffffffffffffffffffff021916908373ffffffffffffffffffffffffffffffffffffffff16021790555050565b6000808273ffffffffffffffffffffffffffffffffffffffff166370a08231306040518263ffffffff1660e01b8152600401808273ffffffffffffffffffffffffffffffffffffffff1673ffffffffffffffffffffffffffffffffffffffff16815260200191505060206040518083038186803b158015610ffc57600080fd5b505afa158015611010573d6000803e3d6000fd5b505050506040513d602081101561102657600080fd5b81019080805190602001909291905050509050600061108d600660008673ffffffffffffffffffffffffffffffffffffffff1673ffffffffffffffffffffffffffffffffffffffff1681526020019081526020016000205483610c8990919063ffffffff16565b90506002544210156110a457600092505050611161565b6110bb600454600354610c8990919063ffffffff16565b421015806111125750600760008573ffffffffffffffffffffffffffffffffffffffff1673ffffffffffffffffffffffffffffffffffffffff16815260200190815260200160002060009054906101000a900460ff165b15611121578092505050611161565b61115c60045461114e61113f60035442610de490919063ffffffff16565b8461147b90919063ffffffff16565b61150590919063ffffffff16565b925050505b919050565b6111858273ffffffffffffffffffffffffffffffffffffffff1661154f565b15156111f9576040517f08c379a000000000000000000000000000000000000000000000000000000000815260040180806020018281038252601f8152602001807f5361666545524332303a2063616c6c20746f206e6f6e2d636f6e74726163740081525060200191505060405180910390fd5b600060608373ffffffffffffffffffffffffffffffffffffffff16836040518082805190602001908083835b60208310151561124a5780518252602082019150602081019050602083039250611225565b6001836020036101000a0380198251168184511680821785525050505050509050019150506000604051808303816000865af19150503d80600081146112ac576040519150601f19603f3d011682016040523d82523d6000602084013e6112b1565b606091505b509150915081151561132b576040517f08c379a00000000000000000000000000000000000000000000000000000000081526004018080602001828103825260208152602001807f5361666545524332303a206c6f772d6c6576656c2063616c6c206661696c656481525060200191505060405180910390fd5b6000815111156113b35780806020019051602081101561134a57600080fd5b810190808051906020019092919050505015156113b2576040517f08c379a000000000000000000000000000000000000000000000000000000000815260040180806020018281038252602a8152602001806116ac602a913960400191505060405180910390fd5b5b50505050565b60008383111582901515611468576040517f08c379a00000000000000000000000000000000000000000000000000000000081526004018080602001828103825283818151815260200191508051906020019080838360005b8381101561142d578082015181840152602081019050611412565b50505050905090810190601f16801561145a5780820380516001836020036101000a031916815260200191505b509250505060405180910390fd5b5060008385039050809150509392505050565b60008083141561148e57600090506114ff565b600082840290508284828115156114a157fe5b041415156114fa576040517f08c379a000000000000000000000000000000000000000000000000000000000815260040180806020018281038252602181526020018061168b6021913960400191505060405180910390fd5b809150505b92915050565b600061154783836040518060400160405280601a81526020017f536166654d6174683a206469766973696f6e206279207a65726f00000000000081525061159a565b905092915050565b60008060007fc5d2460186f7233c927e7db2dcc703c0e500b653ca82273b7bfad8045d85a47060001b9050833f915080821415801561159157506000801b8214155b92505050919050565b600080831182901515611648576040517f08c379a00000000000000000000000000000000000000000000000000000000081526004018080602001828103825283818151815260200191508051906020019080838360005b8381101561160d5780820151818401526020810190506115f2565b50505050905090810190601f16801561163a5780820380516001836020036101000a031916815260200191505b509250505060405180910390fd5b506000838581151561165657fe5b04905080915050939250505056fe4f776e61626c653a206e6577206f776e657220697320746865207a65726f2061646472657373536166654d6174683a206d756c7469706c69636174696f6e206f766572666c6f775361666545524332303a204552433230206f7065726174696f6e20646964206e6f742073756363656564546f6b656e56657374696e673a20746f6b656e20616c7265616479207265766f6b6564a165627a7a72305820507045ae5c9c169780b7adbd03946c5e495af7c5da2a36d47117244615e1b9eb0029546f6b656e56657374696e673a2066696e616c2074696d65206973206265666f72652063757272656e742074696d65546f6b656e56657374696e673a2062656e656669636961727920697320746865207a65726f2061646472657373546f6b656e56657374696e673a20636c696666206973206c6f6e676572207468616e206475726174696f6e506175736572526f6c653a2063616c6c657220646f6573206e6f742068617665207468652050617573657220726f6c654f776e61626c653a206e6577206f776e657220697320746865207a65726f2061646472657373526f6c65733a206163636f756e7420646f6573206e6f74206861766520726f6c65536166654d6174683a206d756c7469706c69636174696f6e206f766572666c6f77526f6c65733a206163636f756e7420697320746865207a65726f206164647265737343726f776473616c653a2062656e656669636961727920697320746865207a65726f2061646472657373a165627a7a72305820accd0daeea486f1d2d71e3ce03c580206afcff098176418bf719e171802c4b95002943726f776473616c653a20746f6b656e20697320746865207a65726f2061646472657373526f6c65733a206163636f756e7420697320746865207a65726f206164647265737343726f776473616c653a2077616c6c657420697320746865207a65726f2061646472657373",
  "source": "//SPDX-License-Identifier: MIT\npragma solidity ^0.5.5;\n\nimport \"@openzeppelin/contracts/crowdsale/validation/PausableCrowdsale.sol\";\nimport \"@openzeppelin/contracts/token/ERC20/IERC20.sol\";\nimport \"@openzeppelin/contracts/math/SafeMath.sol\";\nimport \"./interfaces/AggregatorV3Interface.sol\";\nimport \"./DMODVesting.sol\";\n\ncontract DMODCrowdsale is Ownable, PausableCrowdsale {\n    using SafeMath for uint256;\n\n    event VestingCreated(address beneficiary, address vestingContract);\n\n    address public dmodToken;\n    uint256 public dmodCost;\n\n    uint256 public start;\n    uint256 public cliffDuration;\n    uint256 public duration;\n\n    AggregatorV3Interface public priceFeed;\n\n    /**\n     * @dev Construct a Crowdsale contract\n     * @param rate Number of token units a buyer gets per wei\n     * @param wallet Address where collected funds will be forwarded to\n     * @param token Address of the token being sold\n     * @param _dmodCost Cost of DMOD token where 1e18 units represent 1$\n     * @param ethpriceFeed Chainlink ETH price feed\n     * @param _start Start date in epoch\n     * @param _cliffDuration Duration of cliff in seconds\n     * @param _duration Vesting period duration in seconds\n     */\n    constructor(\n        uint256 rate,\n        address payable wallet,\n        IERC20 token,\n        uint256 _dmodCost,\n        address ethpriceFeed,\n        uint256 _start,\n        uint256 _cliffDuration,\n        uint256 _duration\n    ) public Crowdsale(rate, wallet, token) {\n        dmodToken = address(token);\n        dmodCost = _dmodCost;\n        // priceFeed = AggregatorV3Interface(0x8A753747A1Fa494EC906cE90E9f37563A8AF630e);\n        priceFeed = AggregatorV3Interface(ethpriceFeed);\n        start = _start;\n        cliffDuration = _cliffDuration;\n        duration = _duration;\n    }\n\n    /**\n     * @dev Override to extend the way in which ether is converted to tokens.\n     * @param weiAmount Value in wei to be converted into tokens\n     * @return Number of tokens that can be purchased with the specified _weiAmount\n     */\n    function _getTokenAmount(uint256 weiAmount)\n        internal\n        view\n        returns (uint256)\n    {\n        // Code for calculating the price of ethereum sent and token to be sent\n        (\n            uint80 roundID,\n            int256 price,\n            uint256 startedAt,\n            uint256 timeStamp,\n            uint80 answeredInRound\n        ) = priceFeed.latestRoundData();\n        uint256 neth = uint256(price).mul(1e10);\n        uint256 dl = neth.mul(weiAmount);\n        return dl.div(dmodCost);\n    }\n\n    /**\n     * @dev Source of tokens. Override this method to modify the way in which the crowdsale ultimately gets and sends\n     * its tokens.\n     * @param beneficiary Address performing the token purchase\n     * @param tokenAmount Number of tokens to be emitted\n     */\n    function _deliverTokens(address beneficiary, uint256 tokenAmount) internal {\n        IERC20 dmodInstance = IERC20(dmodToken);\n        DMODVesting dmodVesting =\n            new DMODVesting(\n                beneficiary,\n                start,\n                cliffDuration,\n                duration,\n                false\n            );\n        emit VestingCreated(beneficiary, address(dmodVesting));\n        dmodInstance.transfer(address(dmodVesting), tokenAmount);\n    }\n\n    /**\n     * @dev Withdraw Remaining Tokens after crowdsale finished\n     */\n    function withdrawRemainingTokens() external onlyOwner {\n        IERC20 dmodInstance = IERC20(dmodToken);\n        uint256 balance = dmodInstance.balanceOf(address(this));\n        dmodInstance.transfer(owner(), balance);\n    }\n}\n",
  "sourcePath": "/home/manjain/Documents/demodyfi-stuff/dm-tokensale/invest_contract/contracts/DMODCrowdsale.sol",
  "compiler": {
    "name": "solc",
    "version": "0.5.5+commit.47a71e8f.Emscripten.clang"
  },
  "schemaVersion": "3.3.3",
  "updatedAt": "2021-02-13T15:55:57.529Z",
  "networkType": "ethereum",
  "devdoc": {
    "methods": {
      "buyTokens(address)": {
        "details": "low level token purchase ***DO NOT OVERRIDE*** This function has a non-reentrancy guard, so it shouldn't be called by another `nonReentrant` function.",
        "params": {
          "beneficiary": "Recipient of the token purchase"
        }
      },
      "constructor": {
        "details": "Construct a Crowdsale contract",
        "params": {
          "_cliffDuration": "Duration of cliff in seconds",
          "_dmodCost": "Cost of DMOD token where 1e18 units represent 1$",
          "_duration": "Vesting period duration in seconds",
          "_start": "Start date in epoch",
          "ethpriceFeed": "Chainlink ETH price feed",
          "rate": "Number of token units a buyer gets per wei",
          "token": "Address of the token being sold",
          "wallet": "Address where collected funds will be forwarded to"
        }
      },
      "isOwner()": {
        "details": "Returns true if the caller is the current owner."
      },
      "owner()": {
        "details": "Returns the address of the current owner."
      },
      "pause()": {
        "details": "Called by a pauser to pause, triggers stopped state."
      },
      "paused()": {
        "details": "Returns true if the contract is paused, and false otherwise."
      },
      "rate()": {
        "return": "the number of token units a buyer gets per wei."
      },
      "renounceOwnership()": {
        "details": "Leaves the contract without owner. It will not be possible to call `onlyOwner` functions anymore. Can only be called by the current owner.     * NOTE: Renouncing ownership will leave the contract without an owner, thereby removing any functionality that is only available to the owner."
      },
      "token()": {
        "return": "the token being sold."
      },
      "transferOwnership(address)": {
        "details": "Transfers ownership of the contract to a new account (`newOwner`). Can only be called by the current owner."
      },
      "unpause()": {
        "details": "Called by a pauser to unpause, returns to normal state."
      },
      "wallet()": {
        "return": "the address where funds are collected."
      },
      "weiRaised()": {
        "return": "the amount of wei raised."
      },
      "withdrawRemainingTokens()": {
        "details": "Withdraw Remaining Tokens after crowdsale finished"
      }
    }
  },
  "userdoc": {
    "methods": {}
  }
}